{
  "contractName": "DiscountTokens",
  "abi": [
    {
      "inputs": [],
      "stateMutability": "nonpayable",
      "type": "constructor"
    },
    {
      "inputs": [
        {
          "internalType": "address",
          "name": "spender",
          "type": "address"
        },
        {
          "internalType": "uint256",
          "name": "allowance",
          "type": "uint256"
        },
        {
          "internalType": "uint256",
          "name": "needed",
          "type": "uint256"
        }
      ],
      "name": "ERC20InsufficientAllowance",
      "type": "error"
    },
    {
      "inputs": [
        {
          "internalType": "address",
          "name": "sender",
          "type": "address"
        },
        {
          "internalType": "uint256",
          "name": "balance",
          "type": "uint256"
        },
        {
          "internalType": "uint256",
          "name": "needed",
          "type": "uint256"
        }
      ],
      "name": "ERC20InsufficientBalance",
      "type": "error"
    },
    {
      "inputs": [
        {
          "internalType": "address",
          "name": "approver",
          "type": "address"
        }
      ],
      "name": "ERC20InvalidApprover",
      "type": "error"
    },
    {
      "inputs": [
        {
          "internalType": "address",
          "name": "receiver",
          "type": "address"
        }
      ],
      "name": "ERC20InvalidReceiver",
      "type": "error"
    },
    {
      "inputs": [
        {
          "internalType": "address",
          "name": "sender",
          "type": "address"
        }
      ],
      "name": "ERC20InvalidSender",
      "type": "error"
    },
    {
      "inputs": [
        {
          "internalType": "address",
          "name": "spender",
          "type": "address"
        }
      ],
      "name": "ERC20InvalidSpender",
      "type": "error"
    },
    {
      "anonymous": false,
      "inputs": [
        {
          "indexed": true,
          "internalType": "address",
          "name": "owner",
          "type": "address"
        },
        {
          "indexed": true,
          "internalType": "address",
          "name": "spender",
          "type": "address"
        },
        {
          "indexed": false,
          "internalType": "uint256",
          "name": "value",
          "type": "uint256"
        }
      ],
      "name": "Approval",
      "type": "event"
    },
    {
      "anonymous": false,
      "inputs": [
        {
          "indexed": true,
          "internalType": "address",
          "name": "from",
          "type": "address"
        },
        {
          "indexed": true,
          "internalType": "address",
          "name": "to",
          "type": "address"
        },
        {
          "indexed": false,
          "internalType": "uint256",
          "name": "value",
          "type": "uint256"
        }
      ],
      "name": "Transfer",
      "type": "event"
    },
    {
      "anonymous": false,
      "inputs": [
        {
          "indexed": true,
          "internalType": "address",
          "name": "account",
          "type": "address"
        }
      ],
      "name": "addingNewUser",
      "type": "event"
    },
    {
      "inputs": [],
      "name": "VetSplet",
      "outputs": [
        {
          "internalType": "address",
          "name": "",
          "type": "address"
        }
      ],
      "stateMutability": "view",
      "type": "function",
      "constant": true
    },
    {
      "inputs": [
        {
          "internalType": "address",
          "name": "owner",
          "type": "address"
        },
        {
          "internalType": "address",
          "name": "spender",
          "type": "address"
        }
      ],
      "name": "allowance",
      "outputs": [
        {
          "internalType": "uint256",
          "name": "",
          "type": "uint256"
        }
      ],
      "stateMutability": "view",
      "type": "function",
      "constant": true
    },
    {
      "inputs": [
        {
          "internalType": "address",
          "name": "spender",
          "type": "address"
        },
        {
          "internalType": "uint256",
          "name": "value",
          "type": "uint256"
        }
      ],
      "name": "approve",
      "outputs": [
        {
          "internalType": "bool",
          "name": "",
          "type": "bool"
        }
      ],
      "stateMutability": "nonpayable",
      "type": "function"
    },
    {
      "inputs": [
        {
          "internalType": "address",
          "name": "account",
          "type": "address"
        }
      ],
      "name": "balanceOf",
      "outputs": [
        {
          "internalType": "uint256",
          "name": "",
          "type": "uint256"
        }
      ],
      "stateMutability": "view",
      "type": "function",
      "constant": true
    },
    {
      "inputs": [],
      "name": "decimals",
      "outputs": [
        {
          "internalType": "uint8",
          "name": "",
          "type": "uint8"
        }
      ],
      "stateMutability": "view",
      "type": "function",
      "constant": true
    },
    {
      "inputs": [],
      "name": "name",
      "outputs": [
        {
          "internalType": "string",
          "name": "",
          "type": "string"
        }
      ],
      "stateMutability": "view",
      "type": "function",
      "constant": true
    },
    {
      "inputs": [
        {
          "internalType": "address",
          "name": "",
          "type": "address"
        }
      ],
      "name": "registered",
      "outputs": [
        {
          "internalType": "string",
          "name": "userID",
          "type": "string"
        }
      ],
      "stateMutability": "view",
      "type": "function",
      "constant": true
    },
    {
      "inputs": [],
      "name": "symbol",
      "outputs": [
        {
          "internalType": "string",
          "name": "",
          "type": "string"
        }
      ],
      "stateMutability": "view",
      "type": "function",
      "constant": true
    },
    {
      "inputs": [],
      "name": "totalSupply",
      "outputs": [
        {
          "internalType": "uint256",
          "name": "",
          "type": "uint256"
        }
      ],
      "stateMutability": "view",
      "type": "function",
      "constant": true
    },
    {
      "inputs": [
        {
          "internalType": "address",
          "name": "to",
          "type": "address"
        },
        {
          "internalType": "uint256",
          "name": "value",
          "type": "uint256"
        }
      ],
      "name": "transfer",
      "outputs": [
        {
          "internalType": "bool",
          "name": "",
          "type": "bool"
        }
      ],
      "stateMutability": "nonpayable",
      "type": "function"
    },
    {
      "inputs": [
        {
          "internalType": "address",
          "name": "from",
          "type": "address"
        },
        {
          "internalType": "address",
          "name": "to",
          "type": "address"
        },
        {
          "internalType": "uint256",
          "name": "value",
          "type": "uint256"
        }
      ],
      "name": "transferFrom",
      "outputs": [
        {
          "internalType": "bool",
          "name": "",
          "type": "bool"
        }
      ],
      "stateMutability": "nonpayable",
      "type": "function"
    },
    {
      "inputs": [
        {
          "internalType": "string",
          "name": "userID",
          "type": "string"
        }
      ],
      "name": "registeringAccount",
      "outputs": [],
      "stateMutability": "nonpayable",
      "type": "function"
    },
    {
      "inputs": [
        {
          "internalType": "address",
          "name": "to",
          "type": "address"
        },
        {
          "internalType": "uint256",
          "name": "value",
          "type": "uint256"
        }
      ],
      "name": "minting",
      "outputs": [],
      "stateMutability": "nonpayable",
      "type": "function"
    },
    {
      "inputs": [
        {
          "internalType": "address",
          "name": "from",
          "type": "address"
        },
        {
          "internalType": "uint256",
          "name": "value",
          "type": "uint256"
        }
      ],
      "name": "remove",
      "outputs": [],
      "stateMutability": "nonpayable",
      "type": "function"
    },
    {
      "inputs": [
        {
          "internalType": "address",
          "name": "from",
          "type": "address"
        },
        {
          "internalType": "uint256",
          "name": "value",
          "type": "uint256"
        }
      ],
      "name": "discount",
      "outputs": [
        {
          "internalType": "bool",
          "name": "",
          "type": "bool"
        }
      ],
      "stateMutability": "nonpayable",
      "type": "function"
    },
    {
      "inputs": [
        {
          "internalType": "address",
          "name": "account",
          "type": "address"
        }
      ],
      "name": "getAccount",
      "outputs": [
        {
          "components": [
            {
              "internalType": "string",
              "name": "userID",
              "type": "string"
            }
          ],
          "internalType": "struct DiscountTokens.Account",
          "name": "",
          "type": "tuple"
        }
      ],
      "stateMutability": "view",
      "type": "function",
      "constant": true
    }
  ],
  "bytecode": "0x608060405234801562000010575f80fd5b506040518060400160405280600d81526020017f646973636f756e74546f6b656e000000000000000000000000000000000000008152506040518060400160405280600881526020017f446973636f756e7400000000000000000000000000000000000000000000000081525081600390816200008e91906200034d565b508060049081620000a091906200034d565b5050503360055f6101000a81548173ffffffffffffffffffffffffffffffffffffffff021916908373ffffffffffffffffffffffffffffffffffffffff16021790555062000431565b5f81519050919050565b7f4e487b71000000000000000000000000000000000000000000000000000000005f52604160045260245ffd5b7f4e487b71000000000000000000000000000000000000000000000000000000005f52602260045260245ffd5b5f60028204905060018216806200016557607f821691505b6020821081036200017b576200017a62000120565b5b50919050565b5f819050815f5260205f209050919050565b5f6020601f8301049050919050565b5f82821b905092915050565b5f60088302620001df7fffffffffffffffffffffffffffffffffffffffffffffffffffffffffffffffff82620001a2565b620001eb8683620001a2565b95508019841693508086168417925050509392505050565b5f819050919050565b5f819050919050565b5f620002356200022f620002298462000203565b6200020c565b62000203565b9050919050565b5f819050919050565b620002508362000215565b620002686200025f826200023c565b848454620001ae565b825550505050565b5f90565b6200027e62000270565b6200028b81848462000245565b505050565b5b81811015620002b257620002a65f8262000274565b60018101905062000291565b5050565b601f8211156200030157620002cb8162000181565b620002d68462000193565b81016020851015620002e6578190505b620002fe620002f58562000193565b83018262000290565b50505b505050565b5f82821c905092915050565b5f620003235f198460080262000306565b1980831691505092915050565b5f6200033d838362000312565b9150826002028217905092915050565b6200035882620000e9565b67ffffffffffffffff811115620003745762000373620000f3565b5b6200038082546200014d565b6200038d828285620002b6565b5f60209050601f831160018114620003c3575f8415620003ae578287015190505b620003ba858262000330565b86555062000429565b601f198416620003d38662000181565b5f5b82811015620003fc57848901518255600182019150602085019450602081019050620003d5565b868310156200041c578489015162000418601f89168262000312565b8355505b6001600288020188555050505b505050505050565b611a21806200043f5f395ff3fe608060405234801561000f575f80fd5b50600436106100fe575f3560e01c80637395fece11610095578063b2dd5c0711610064578063b2dd5c07146102c0578063dd62ed3e146102f0578063fbcbc0f114610320578063ffde692714610350576100fe565b80637395fece1461022657806395d89b4114610256578063a9059cbb14610274578063abe7f1ab146102a4576100fe565b806323b872dd116100d157806323b872dd1461018a578063313ce567146101ba578063383702f6146101d857806370a08231146101f6576100fe565b806306fdde0314610102578063095ea7b31461012057806318160ddd14610150578063233ebc8b1461016e575b5f80fd5b61010a61036c565b604051610117919061115c565b60405180910390f35b61013a60048036038101906101359190611211565b6103fc565b6040516101479190611269565b60405180910390f35b61015861041e565b6040516101659190611291565b60405180910390f35b61018860048036038101906101839190611211565b610427565b005b6101a4600480360381019061019f91906112aa565b6104c4565b6040516101b19190611269565b60405180910390f35b6101c26104f2565b6040516101cf9190611315565b60405180910390f35b6101e06104fa565b6040516101ed919061133d565b60405180910390f35b610210600480360381019061020b9190611356565b61051f565b60405161021d9190611291565b60405180910390f35b610240600480360381019061023b9190611211565b610564565b60405161024d9190611269565b60405180910390f35b61025e6105c4565b60405161026b919061115c565b60405180910390f35b61028e60048036038101906102899190611211565b610654565b60405161029b9190611269565b60405180910390f35b6102be60048036038101906102b99190611211565b610676565b005b6102da60048036038101906102d59190611356565b610713565b6040516102e7919061115c565b60405180910390f35b61030a60048036038101906103059190611381565b6107b3565b6040516103179190611291565b60405180910390f35b61033a60048036038101906103359190611356565b610835565b604051610347919061142e565b60405180910390f35b61036a600480360381019061036591906114af565b61091b565b005b60606003805461037b90611527565b80601f01602080910402602001604051908101604052809291908181526020018280546103a790611527565b80156103f25780601f106103c9576101008083540402835291602001916103f2565b820191905f5260205f20905b8154815290600101906020018083116103d557829003601f168201915b5050505050905090565b5f80610406610a3e565b9050610413818585610a45565b600191505092915050565b5f600254905090565b60055f9054906101000a900473ffffffffffffffffffffffffffffffffffffffff1673ffffffffffffffffffffffffffffffffffffffff163373ffffffffffffffffffffffffffffffffffffffff16146104b6576040517f08c379a00000000000000000000000000000000000000000000000000000000081526004016104ad906115a1565b60405180910390fd5b6104c08282610a57565b5050565b5f806104ce610a3e565b90506104db858285610ad6565b6104e6858585610b68565b60019150509392505050565b5f6012905090565b60055f9054906101000a900473ffffffffffffffffffffffffffffffffffffffff1681565b5f805f8373ffffffffffffffffffffffffffffffffffffffff1673ffffffffffffffffffffffffffffffffffffffff1681526020019081526020015f20549050919050565b5f8161056f8461051f565b10156105b0576040517f08c379a00000000000000000000000000000000000000000000000000000000081526004016105a790611609565b60405180910390fd5b6105ba8383610c58565b6001905092915050565b6060600480546105d390611527565b80601f01602080910402602001604051908101604052809291908181526020018280546105ff90611527565b801561064a5780601f106106215761010080835404028352916020019161064a565b820191905f5260205f20905b81548152906001019060200180831161062d57829003601f168201915b5050505050905090565b5f8061065e610a3e565b905061066b818585610b68565b600191505092915050565b60055f9054906101000a900473ffffffffffffffffffffffffffffffffffffffff1673ffffffffffffffffffffffffffffffffffffffff163373ffffffffffffffffffffffffffffffffffffffff1614610705576040517f08c379a00000000000000000000000000000000000000000000000000000000081526004016106fc906115a1565b60405180910390fd5b61070f8282610c58565b5050565b6006602052805f5260405f205f91509050805f01805461073290611527565b80601f016020809104026020016040519081016040528092919081815260200182805461075e90611527565b80156107a95780601f10610780576101008083540402835291602001916107a9565b820191905f5260205f20905b81548152906001019060200180831161078c57829003601f168201915b5050505050905081565b5f60015f8473ffffffffffffffffffffffffffffffffffffffff1673ffffffffffffffffffffffffffffffffffffffff1681526020019081526020015f205f8373ffffffffffffffffffffffffffffffffffffffff1673ffffffffffffffffffffffffffffffffffffffff1681526020019081526020015f2054905092915050565b61083d6110bf565b60065f8373ffffffffffffffffffffffffffffffffffffffff1673ffffffffffffffffffffffffffffffffffffffff1681526020019081526020015f206040518060200160405290815f8201805461089490611527565b80601f01602080910402602001604051908101604052809291908181526020018280546108c090611527565b801561090b5780601f106108e25761010080835404028352916020019161090b565b820191905f5260205f20905b8154815290600101906020018083116108ee57829003601f168201915b5050505050815250509050919050565b5f60065f3373ffffffffffffffffffffffffffffffffffffffff1673ffffffffffffffffffffffffffffffffffffffff1681526020019081526020015f205f01805461096690611527565b9050146109a8576040517f08c379a000000000000000000000000000000000000000000000000000000000815260040161099f90611697565b60405180910390fd5b818160065f3373ffffffffffffffffffffffffffffffffffffffff1673ffffffffffffffffffffffffffffffffffffffff1681526020019081526020015f205f0191826109f6929190611889565b503373ffffffffffffffffffffffffffffffffffffffff167f16acb468026533e376940fdac9b89994495d7c51e354048f35e692f3cf91245460405160405180910390a25050565b5f33905090565b610a528383836001610cd7565b505050565b5f73ffffffffffffffffffffffffffffffffffffffff168273ffffffffffffffffffffffffffffffffffffffff1603610ac7575f6040517fec442f05000000000000000000000000000000000000000000000000000000008152600401610abe919061133d565b60405180910390fd5b610ad25f8383610ea6565b5050565b5f610ae184846107b3565b90507fffffffffffffffffffffffffffffffffffffffffffffffffffffffffffffffff8114610b625781811015610b53578281836040517ffb8f41b2000000000000000000000000000000000000000000000000000000008152600401610b4a93929190611956565b60405180910390fd5b610b6184848484035f610cd7565b5b50505050565b5f73ffffffffffffffffffffffffffffffffffffffff168373ffffffffffffffffffffffffffffffffffffffff1603610bd8575f6040517f96c6fd1e000000000000000000000000000000000000000000000000000000008152600401610bcf919061133d565b60405180910390fd5b5f73ffffffffffffffffffffffffffffffffffffffff168273ffffffffffffffffffffffffffffffffffffffff1603610c48575f6040517fec442f05000000000000000000000000000000000000000000000000000000008152600401610c3f919061133d565b60405180910390fd5b610c53838383610ea6565b505050565b5f73ffffffffffffffffffffffffffffffffffffffff168273ffffffffffffffffffffffffffffffffffffffff1603610cc8575f6040517f96c6fd1e000000000000000000000000000000000000000000000000000000008152600401610cbf919061133d565b60405180910390fd5b610cd3825f83610ea6565b5050565b5f73ffffffffffffffffffffffffffffffffffffffff168473ffffffffffffffffffffffffffffffffffffffff1603610d47575f6040517fe602df05000000000000000000000000000000000000000000000000000000008152600401610d3e919061133d565b60405180910390fd5b5f73ffffffffffffffffffffffffffffffffffffffff168373ffffffffffffffffffffffffffffffffffffffff1603610db7575f6040517f94280d62000000000000000000000000000000000000000000000000000000008152600401610dae919061133d565b60405180910390fd5b8160015f8673ffffffffffffffffffffffffffffffffffffffff1673ffffffffffffffffffffffffffffffffffffffff1681526020019081526020015f205f8573ffffffffffffffffffffffffffffffffffffffff1673ffffffffffffffffffffffffffffffffffffffff1681526020019081526020015f20819055508015610ea0578273ffffffffffffffffffffffffffffffffffffffff168473ffffffffffffffffffffffffffffffffffffffff167f8c5be1e5ebec7d5bd14f71427d1e84f3dd0314c0f7b2291e5b200ac8c7c3b92584604051610e979190611291565b60405180910390a35b50505050565b5f73ffffffffffffffffffffffffffffffffffffffff168373ffffffffffffffffffffffffffffffffffffffff1603610ef6578060025f828254610eea91906119b8565b92505081905550610fc4565b5f805f8573ffffffffffffffffffffffffffffffffffffffff1673ffffffffffffffffffffffffffffffffffffffff1681526020019081526020015f2054905081811015610f7f578381836040517fe450d38c000000000000000000000000000000000000000000000000000000008152600401610f7693929190611956565b60405180910390fd5b8181035f808673ffffffffffffffffffffffffffffffffffffffff1673ffffffffffffffffffffffffffffffffffffffff1681526020019081526020015f2081905550505b5f73ffffffffffffffffffffffffffffffffffffffff168273ffffffffffffffffffffffffffffffffffffffff160361100b578060025f8282540392505081905550611055565b805f808473ffffffffffffffffffffffffffffffffffffffff1673ffffffffffffffffffffffffffffffffffffffff1681526020019081526020015f205f82825401925050819055505b8173ffffffffffffffffffffffffffffffffffffffff168373ffffffffffffffffffffffffffffffffffffffff167fddf252ad1be2c89b69c2b068fc378daa952ba7f163c4a11628f55a4df523b3ef836040516110b29190611291565b60405180910390a3505050565b6040518060200160405280606081525090565b5f81519050919050565b5f82825260208201905092915050565b5f5b838110156111095780820151818401526020810190506110ee565b5f8484015250505050565b5f601f19601f8301169050919050565b5f61112e826110d2565b61113881856110dc565b93506111488185602086016110ec565b61115181611114565b840191505092915050565b5f6020820190508181035f8301526111748184611124565b905092915050565b5f80fd5b5f80fd5b5f73ffffffffffffffffffffffffffffffffffffffff82169050919050565b5f6111ad82611184565b9050919050565b6111bd816111a3565b81146111c7575f80fd5b50565b5f813590506111d8816111b4565b92915050565b5f819050919050565b6111f0816111de565b81146111fa575f80fd5b50565b5f8135905061120b816111e7565b92915050565b5f80604083850312156112275761122661117c565b5b5f611234858286016111ca565b9250506020611245858286016111fd565b9150509250929050565b5f8115159050919050565b6112638161124f565b82525050565b5f60208201905061127c5f83018461125a565b92915050565b61128b816111de565b82525050565b5f6020820190506112a45f830184611282565b92915050565b5f805f606084860312156112c1576112c061117c565b5b5f6112ce868287016111ca565b93505060206112df868287016111ca565b92505060406112f0868287016111fd565b9150509250925092565b5f60ff82169050919050565b61130f816112fa565b82525050565b5f6020820190506113285f830184611306565b92915050565b611337816111a3565b82525050565b5f6020820190506113505f83018461132e565b92915050565b5f6020828403121561136b5761136a61117c565b5b5f611378848285016111ca565b91505092915050565b5f80604083850312156113975761139661117c565b5b5f6113a4858286016111ca565b92505060206113b5858286016111ca565b9150509250929050565b5f82825260208201905092915050565b5f6113d9826110d2565b6113e381856113bf565b93506113f38185602086016110ec565b6113fc81611114565b840191505092915050565b5f602083015f8301518482035f86015261142182826113cf565b9150508091505092915050565b5f6020820190508181035f8301526114468184611407565b905092915050565b5f80fd5b5f80fd5b5f80fd5b5f8083601f84011261146f5761146e61144e565b5b8235905067ffffffffffffffff81111561148c5761148b611452565b5b6020830191508360018202830111156114a8576114a7611456565b5b9250929050565b5f80602083850312156114c5576114c461117c565b5b5f83013567ffffffffffffffff8111156114e2576114e1611180565b5b6114ee8582860161145a565b92509250509250929050565b7f4e487b71000000000000000000000000000000000000000000000000000000005f52602260045260245ffd5b5f600282049050600182168061153e57607f821691505b602082108103611551576115506114fa565b5b50919050565b7f4f6e6c792056657453706c65742063616e20646f207468697320616374696f6e5f82015250565b5f61158b6020836110dc565b915061159682611557565b602082019050919050565b5f6020820190508181035f8301526115b88161157f565b9050919050565b7f4e6f7420656e6f75676820746f6b656e730000000000000000000000000000005f82015250565b5f6115f36011836110dc565b91506115fe826115bf565b602082019050919050565b5f6020820190508181035f830152611620816115e7565b9050919050565b7f4163636f756e742068617320616c7265616479206265656e20726567697374655f8201527f7265640000000000000000000000000000000000000000000000000000000000602082015250565b5f6116816023836110dc565b915061168c82611627565b604082019050919050565b5f6020820190508181035f8301526116ae81611675565b9050919050565b5f82905092915050565b7f4e487b71000000000000000000000000000000000000000000000000000000005f52604160045260245ffd5b5f819050815f5260205f209050919050565b5f6020601f8301049050919050565b5f82821b905092915050565b5f600883026117487fffffffffffffffffffffffffffffffffffffffffffffffffffffffffffffffff8261170d565b611752868361170d565b95508019841693508086168417925050509392505050565b5f819050919050565b5f61178d611788611783846111de565b61176a565b6111de565b9050919050565b5f819050919050565b6117a683611773565b6117ba6117b282611794565b848454611719565b825550505050565b5f90565b6117ce6117c2565b6117d981848461179d565b505050565b5b818110156117fc576117f15f826117c6565b6001810190506117df565b5050565b601f82111561184157611812816116ec565b61181b846116fe565b8101602085101561182a578190505b61183e611836856116fe565b8301826117de565b50505b505050565b5f82821c905092915050565b5f6118615f1984600802611846565b1980831691505092915050565b5f6118798383611852565b9150826002028217905092915050565b61189383836116b5565b67ffffffffffffffff8111156118ac576118ab6116bf565b5b6118b68254611527565b6118c1828285611800565b5f601f8311600181146118ee575f84156118dc578287013590505b6118e6858261186e565b86555061194d565b601f1984166118fc866116ec565b5f5b82811015611923578489013582556001820191506020850194506020810190506118fe565b86831015611940578489013561193c601f891682611852565b8355505b6001600288020188555050505b50505050505050565b5f6060820190506119695f83018661132e565b6119766020830185611282565b6119836040830184611282565b949350505050565b7f4e487b71000000000000000000000000000000000000000000000000000000005f52601160045260245ffd5b5f6119c2826111de565b91506119cd836111de565b92508282019050808211156119e5576119e461198b565b5b9291505056fea2646970667358221220e2d5dc34e37bf9cf770acdbe02dde95bce6f03c047bef1da8aa60b2d953ab73664736f6c63430008170033",
  "immutableReferences": {},
  "source": "// SPDX-License-Identifier: MIT\r\npragma solidity ^0.8.23;\r\n\r\nimport \"@openzeppelin/contracts/token/ERC20/ERC20.sol\";\r\nimport \"@openzeppelin/contracts/token/ERC20/extensions/ERC20Burnable.sol\";\r\n\r\ncontract ownerControl {\r\n    address public VetSplet;\r\n\r\n    constructor() {\r\n        VetSplet = msg.sender;\r\n    }\r\n\r\n    modifier onlyOwner() {\r\n        require(msg.sender == VetSplet, \"Only VetSplet can do this action\");\r\n        _;\r\n    }\r\n}\r\n\r\ncontract DiscountTokens is ERC20, ownerControl {\r\n\r\n    struct Account {\r\n        string userID;\r\n    }\r\n\r\n    mapping(address => Account) public registered;\r\n\r\n    event addingNewUser(address indexed account);\r\n\r\n    function registeringAccount(string calldata userID) public {\r\n        require(bytes(registered[msg.sender].userID).length == 0, \"Account has already been registered\");\r\n\r\n        registered[msg.sender].userID = userID;\r\n        emit addingNewUser(msg.sender);\r\n    }\r\n\r\n    constructor() ERC20(\"discountToken\", \"Discount\") {\r\n    }\r\n\r\n    function minting(address to, uint256 value) public onlyOwner {\r\n        _mint(to, value);\r\n    }\r\n\r\n    function remove(address from, uint256 value) public onlyOwner {\r\n        _burn(from, value);\r\n    }\r\n\r\n    function discount(address from, uint256 value) public returns (bool) {\r\n        require(balanceOf(from) >= value, \"Not enough tokens\");\r\n        _burn(from, value);\r\n        return true;\r\n    }\r\n\r\n    function getAccount(address account) public view returns (Account memory) {\r\n        return registered[account];\r\n    }\r\n}",
  "sourcePath": "C:\\Users\\Matea Velichkovska\\OneDrive\\OneDrive new\\OneDrive\\Documents\\GitHub\\LP-09\\dApp\\contracts\\DiscountTokens.sol",
  "compiler": {
    "name": "solc",
    "version": "0.8.23+commit.f704f362.Emscripten.clang"
  },
  "schemaVersion": "3.4.16",
  "updatedAt": "2024-01-07T22:57:27.559Z",
  "networkType": "ethereum",
  "devdoc": {
    "errors": {
      "ERC20InsufficientAllowance(address,uint256,uint256)": [
        {
          "details": "Indicates a failure with the `spender`s `allowance`. Used in transfers.",
          "params": {
            "allowance": "Amount of tokens a `spender` is allowed to operate with.",
            "needed": "Minimum amount required to perform a transfer.",
            "spender": "Address that may be allowed to operate on tokens without being their owner."
          }
        }
      ],
      "ERC20InsufficientBalance(address,uint256,uint256)": [
        {
          "details": "Indicates an error related to the current `balance` of a `sender`. Used in transfers.",
          "params": {
            "balance": "Current balance for the interacting account.",
            "needed": "Minimum amount required to perform a transfer.",
            "sender": "Address whose tokens are being transferred."
          }
        }
      ],
      "ERC20InvalidApprover(address)": [
        {
          "details": "Indicates a failure with the `approver` of a token to be approved. Used in approvals.",
          "params": {
            "approver": "Address initiating an approval operation."
          }
        }
      ],
      "ERC20InvalidReceiver(address)": [
        {
          "details": "Indicates a failure with the token `receiver`. Used in transfers.",
          "params": {
            "receiver": "Address to which tokens are being transferred."
          }
        }
      ],
      "ERC20InvalidSender(address)": [
        {
          "details": "Indicates a failure with the token `sender`. Used in transfers.",
          "params": {
            "sender": "Address whose tokens are being transferred."
          }
        }
      ],
      "ERC20InvalidSpender(address)": [
        {
          "details": "Indicates a failure with the `spender` to be approved. Used in approvals.",
          "params": {
            "spender": "Address that may be allowed to operate on tokens without being their owner."
          }
        }
      ]
    },
    "events": {
      "Approval(address,address,uint256)": {
        "details": "Emitted when the allowance of a `spender` for an `owner` is set by a call to {approve}. `value` is the new allowance."
      },
      "Transfer(address,address,uint256)": {
        "details": "Emitted when `value` tokens are moved from one account (`from`) to another (`to`). Note that `value` may be zero."
      }
    },
    "kind": "dev",
    "methods": {
      "allowance(address,address)": {
        "details": "See {IERC20-allowance}."
      },
      "approve(address,uint256)": {
        "details": "See {IERC20-approve}. NOTE: If `value` is the maximum `uint256`, the allowance is not updated on `transferFrom`. This is semantically equivalent to an infinite approval. Requirements: - `spender` cannot be the zero address."
      },
      "balanceOf(address)": {
        "details": "See {IERC20-balanceOf}."
      },
      "decimals()": {
        "details": "Returns the number of decimals used to get its user representation. For example, if `decimals` equals `2`, a balance of `505` tokens should be displayed to a user as `5.05` (`505 / 10 ** 2`). Tokens usually opt for a value of 18, imitating the relationship between Ether and Wei. This is the default value returned by this function, unless it's overridden. NOTE: This information is only used for _display_ purposes: it in no way affects any of the arithmetic of the contract, including {IERC20-balanceOf} and {IERC20-transfer}."
      },
      "name()": {
        "details": "Returns the name of the token."
      },
      "symbol()": {
        "details": "Returns the symbol of the token, usually a shorter version of the name."
      },
      "totalSupply()": {
        "details": "See {IERC20-totalSupply}."
      },
      "transfer(address,uint256)": {
        "details": "See {IERC20-transfer}. Requirements: - `to` cannot be the zero address. - the caller must have a balance of at least `value`."
      },
      "transferFrom(address,address,uint256)": {
        "details": "See {IERC20-transferFrom}. Emits an {Approval} event indicating the updated allowance. This is not required by the EIP. See the note at the beginning of {ERC20}. NOTE: Does not update the allowance if the current allowance is the maximum `uint256`. Requirements: - `from` and `to` cannot be the zero address. - `from` must have a balance of at least `value`. - the caller must have allowance for ``from``'s tokens of at least `value`."
      }
    },
    "version": 1
  },
  "userdoc": {
    "kind": "user",
    "methods": {},
    "version": 1
  }
}