{
  "contractName": "ownerControl",
  "abi": [
    {
      "inputs": [],
      "stateMutability": "nonpayable",
      "type": "constructor"
    },
    {
      "inputs": [],
      "name": "VetSplet",
      "outputs": [
        {
          "internalType": "address",
          "name": "",
          "type": "address"
        }
      ],
      "stateMutability": "view",
      "type": "function"
    }
  ],
  "bytecode": "0x608060405234801561000f575f80fd5b50335f806101000a81548173ffffffffffffffffffffffffffffffffffffffff021916908373ffffffffffffffffffffffffffffffffffffffff16021790555060ef8061005b5f395ff3fe6080604052348015600e575f80fd5b50600436106026575f3560e01c8063383702f614602a575b5f80fd5b60306044565b604051603b919060a2565b60405180910390f35b5f8054906101000a900473ffffffffffffffffffffffffffffffffffffffff1681565b5f73ffffffffffffffffffffffffffffffffffffffff82169050919050565b5f608e826067565b9050919050565b609c816086565b82525050565b5f60208201905060b35f8301846095565b9291505056fea26469706673582212204345c3276b43fc38c8e8392f6132ae70b268a9b67b3c9269ef1b97bc67f7628864736f6c63430008170033",
  "immutableReferences": {},
  "source": "// SPDX-License-Identifier: MIT\r\npragma solidity ^0.8.23;\r\n\r\nimport \"@openzeppelin/contracts/token/ERC20/ERC20.sol\";\r\nimport \"@openzeppelin/contracts/token/ERC20/extensions/ERC20Burnable.sol\";\r\n\r\ncontract ownerControl {\r\n    address public VetSplet;\r\n\r\n    constructor() {\r\n        VetSplet = msg.sender;\r\n    }\r\n\r\n    modifier onlyOwner() {\r\n        require(msg.sender == VetSplet, \"Only VetSplet can do this action\");\r\n        _;\r\n    }\r\n}\r\n\r\ncontract DiscountTokens is ERC20, ownerControl {\r\n\r\n    struct Account {\r\n        string userID;\r\n    }\r\n\r\n    mapping(address => Account) public registered;\r\n\r\n    event addingNewUser(address indexed account);\r\n\r\n    function registeringAccount(string calldata userID) public {\r\n        require(bytes(registered[msg.sender].userID).length == 0, \"Account has already been registered\");\r\n\r\n        registered[msg.sender].userID = userID;\r\n        emit addingNewUser(msg.sender);\r\n    }\r\n\r\n    constructor() ERC20(\"discountToken\", \"Discount\") {\r\n    }\r\n\r\n    function minting(address to, uint256 value) public onlyOwner {\r\n        _mint(to, value);\r\n    }\r\n\r\n    function remove(address from, uint256 value) public onlyOwner {\r\n        _burn(from, value);\r\n    }\r\n\r\n    function discount(address from, uint256 value) public returns (bool) {\r\n        require(balanceOf(from) >= value, \"Not enough tokens\");\r\n        _burn(from, value);\r\n        return true;\r\n    }\r\n\r\n    function getAccount(address account) public view returns (Account memory) {\r\n        return registered[account];\r\n    }\r\n}",
  "sourcePath": "C:\\Users\\Matea Velichkovska\\OneDrive\\OneDrive new\\OneDrive\\Documents\\GitHub\\LP-09\\dApp\\contracts\\DiscountTokens.sol",
  "compiler": {
    "name": "solc",
    "version": "0.8.23+commit.f704f362.Emscripten.clang"
  },
  "schemaVersion": "3.4.16",
  "updatedAt": "2024-01-07T22:57:24.358Z",
  "devdoc": {
    "kind": "dev",
    "methods": {},
    "version": 1
  },
  "userdoc": {
    "kind": "user",
    "methods": {},
    "version": 1
  }
}